{
  "_format": "hh-sol-artifact-1",
  "contractName": "Passport",
  "sourceName": "contracts/passport/Passport.sol",
  "abi": [
    {
      "inputs": [
        {
          "internalType": "address",
          "name": "contractOwner",
          "type": "address"
        }
      ],
      "stateMutability": "nonpayable",
      "type": "constructor"
    },
    {
      "anonymous": false,
      "inputs": [
        {
          "indexed": true,
          "internalType": "address",
          "name": "wallet",
          "type": "address"
        },
        {
          "indexed": false,
          "internalType": "uint256",
          "name": "passportId",
          "type": "uint256"
        }
      ],
      "name": "Activate",
      "type": "event"
    },
    {
      "anonymous": false,
      "inputs": [
        {
          "indexed": true,
          "internalType": "address",
          "name": "wallet",
          "type": "address"
        },
        {
          "indexed": false,
          "internalType": "uint256",
          "name": "passportId",
          "type": "uint256"
        },
        {
          "indexed": false,
          "internalType": "bool",
          "name": "admin",
          "type": "bool"
        }
      ],
      "name": "Create",
      "type": "event"
    },
    {
      "anonymous": false,
      "inputs": [
        {
          "indexed": true,
          "internalType": "address",
          "name": "wallet",
          "type": "address"
        },
        {
          "indexed": false,
          "internalType": "uint256",
          "name": "passportId",
          "type": "uint256"
        }
      ],
      "name": "Deactivate",
      "type": "event"
    },
    {
      "anonymous": false,
      "inputs": [
        {
          "indexed": true,
          "internalType": "address",
          "name": "previousOwner",
          "type": "address"
        },
        {
          "indexed": true,
          "internalType": "address",
          "name": "newOwner",
          "type": "address"
        }
      ],
      "name": "OwnershipTransferred",
      "type": "event"
    },
    {
      "inputs": [
        {
          "internalType": "address",
          "name": "wallet",
          "type": "address"
        }
      ],
      "name": "activate",
      "outputs": [],
      "stateMutability": "nonpayable",
      "type": "function"
    },
    {
      "inputs": [
        {
          "internalType": "address",
          "name": "wallet",
          "type": "address"
        }
      ],
      "name": "adminCreate",
      "outputs": [],
      "stateMutability": "nonpayable",
      "type": "function"
    },
    {
      "inputs": [
        {
          "internalType": "address",
          "name": "wallet",
          "type": "address"
        },
        {
          "internalType": "uint256",
          "name": "id",
          "type": "uint256"
        }
      ],
      "name": "adminCreateWithId",
      "outputs": [],
      "stateMutability": "nonpayable",
      "type": "function"
    },
    {
      "inputs": [],
      "name": "create",
      "outputs": [],
      "stateMutability": "nonpayable",
      "type": "function"
    },
    {
      "inputs": [
        {
          "internalType": "address",
          "name": "wallet",
          "type": "address"
        }
      ],
      "name": "deactivate",
      "outputs": [],
      "stateMutability": "nonpayable",
      "type": "function"
    },
    {
      "inputs": [],
      "name": "disable",
      "outputs": [],
      "stateMutability": "nonpayable",
      "type": "function"
    },
    {
      "inputs": [],
      "name": "enable",
      "outputs": [],
      "stateMutability": "nonpayable",
      "type": "function"
    },
    {
      "inputs": [],
      "name": "enabled",
      "outputs": [
        {
          "internalType": "bool",
          "name": "",
          "type": "bool"
        }
      ],
      "stateMutability": "view",
      "type": "function"
    },
    {
      "inputs": [
        {
          "internalType": "uint256",
          "name": "",
          "type": "uint256"
        }
      ],
      "name": "idActive",
      "outputs": [
        {
          "internalType": "bool",
          "name": "",
          "type": "bool"
        }
      ],
      "stateMutability": "view",
      "type": "function"
    },
    {
      "inputs": [
        {
          "internalType": "uint256",
          "name": "",
          "type": "uint256"
        }
      ],
      "name": "idPassport",
      "outputs": [
        {
          "internalType": "address",
          "name": "",
          "type": "address"
        }
      ],
      "stateMutability": "view",
      "type": "function"
    },
    {
      "inputs": [],
      "name": "initialPassportId",
      "outputs": [
        {
          "internalType": "uint256",
          "name": "",
          "type": "uint256"
        }
      ],
      "stateMutability": "view",
      "type": "function"
    },
    {
      "inputs": [],
      "name": "owner",
      "outputs": [
        {
          "internalType": "address",
          "name": "",
          "type": "address"
        }
      ],
      "stateMutability": "view",
      "type": "function"
    },
    {
      "inputs": [
        {
          "internalType": "address",
          "name": "",
          "type": "address"
        }
      ],
      "name": "passportId",
      "outputs": [
        {
          "internalType": "uint256",
          "name": "",
          "type": "uint256"
        }
      ],
      "stateMutability": "view",
      "type": "function"
    },
    {
      "inputs": [],
      "name": "renounceOwnership",
      "outputs": [],
      "stateMutability": "nonpayable",
      "type": "function"
    },
    {
      "inputs": [],
      "name": "totalAdminCreates",
      "outputs": [
        {
          "internalType": "uint256",
          "name": "",
          "type": "uint256"
        }
      ],
      "stateMutability": "view",
      "type": "function"
    },
    {
      "inputs": [],
      "name": "totalCreates",
      "outputs": [
        {
          "internalType": "uint256",
          "name": "",
          "type": "uint256"
        }
      ],
      "stateMutability": "view",
      "type": "function"
    },
    {
      "inputs": [],
      "name": "totalPublicCreates",
      "outputs": [
        {
          "internalType": "uint256",
          "name": "",
          "type": "uint256"
        }
      ],
      "stateMutability": "view",
      "type": "function"
    },
    {
      "inputs": [
        {
          "internalType": "address",
          "name": "newOwner",
          "type": "address"
        }
      ],
      "name": "transferOwnership",
      "outputs": [],
      "stateMutability": "nonpayable",
      "type": "function"
    },
    {
      "inputs": [
        {
          "internalType": "address",
          "name": "",
          "type": "address"
        }
      ],
      "name": "walletActive",
      "outputs": [
        {
          "internalType": "bool",
          "name": "",
          "type": "bool"
        }
      ],
      "stateMutability": "view",
      "type": "function"
    }
  ],
  "bytecode": "0x60806040526008805460ff191660011790556103e860095534801561002357600080fd5b50604051610e97380380610e9783398101604081905261004291610184565b61004b3361005a565b610054816100aa565b506101b4565b600080546001600160a01b038381166001600160a01b0319831681178455604051919092169283917f8be0079c531659141344cd1fd0a4f28419497f9722a3daafe3b4186f6b6457e09190a35050565b6100b2610128565b6001600160a01b03811661011c5760405162461bcd60e51b815260206004820152602660248201527f4f776e61626c653a206e6577206f776e657220697320746865207a65726f206160448201526564647265737360d01b60648201526084015b60405180910390fd5b6101258161005a565b50565b6000546001600160a01b031633146101825760405162461bcd60e51b815260206004820181905260248201527f4f776e61626c653a2063616c6c6572206973206e6f7420746865206f776e65726044820152606401610113565b565b60006020828403121561019657600080fd5b81516001600160a01b03811681146101ad57600080fd5b9392505050565b610cd4806101c36000396000f3fe608060405234801561001057600080fd5b50600436106101515760003560e01c80634eaeb722116100cd5780638da5cb5b11610081578063e34f95c511610066578063e34f95c5146102a5578063efc81a8c146102c8578063f2fde38b146102d057600080fd5b80638da5cb5b1461028c578063a3907d711461029d57600080fd5b8063715018a6116100b2578063715018a61461023a5780637bdfddd214610242578063875aeaff1461028357600080fd5b80634eaeb7221461021e57806367d67bb11461023157600080fd5b80631c5a9d9c11610124578063238dafe011610109578063238dafe0146101f65780632f2770db146102035780633ea053eb1461020b57600080fd5b80631c5a9d9c146101c35780631ca8b8ab146101d657600080fd5b806302fa5d231461015657806305dcf6871461018e57806311f158e2146101a557806314d70161146101ba575b600080fd5b610179610164366004610bea565b60046020526000908152604090205460ff1681565b60405190151581526020015b60405180910390f35b61019760065481565b604051908152602001610185565b6101b86101b3366004610c1f565b6102e3565b005b61019760095481565b6101b86101d1366004610c1f565b6103e4565b6101976101e4366004610c1f565b60016020526000908152604090205481565b6008546101799060ff1681565b6101b861058c565b6101b8610219366004610c1f565b6105f2565b6101b861022c366004610c3a565b610790565b61019760055481565b6101b86108c2565b61026b610250366004610bea565b6002602052600090815260409020546001600160a01b031681565b6040516001600160a01b039091168152602001610185565b61019760075481565b6000546001600160a01b031661026b565b6101b86108d6565b6101796102b3366004610c1f565b60036020526000908152604090205460ff1681565b6101b86108ed565b6101b86102de366004610c1f565b6109d2565b60085460ff1661033a5760405162461bcd60e51b815260206004820152601960248201527f54686520636f6e74726163742069732064697361626c65642e0000000000000060448201526064015b60405180910390fd5b610342610a5f565b6001600160a01b038116600090815260016020526040902054156103a85760405162461bcd60e51b815260206004820152601760248201527f50617373706f727420616c7265616479206578697374730000000000000000006044820152606401610331565b60006103c26009546103bd6007546001610ab9565b610ab9565b90506103d16006546001610ab9565b6006556103e082826001610ace565b5050565b60085460ff166104365760405162461bcd60e51b815260206004820152601960248201527f54686520636f6e74726163742069732064697361626c65642e000000000000006044820152606401610331565b61043e610a5f565b6001600160a01b03811660009081526001602052604081205490036104a55760405162461bcd60e51b815260206004820152601360248201527f50617373706f7274206d757374206578697374000000000000000000000000006044820152606401610331565b6001600160a01b03811660009081526003602052604090205460ff161561050e5760405162461bcd60e51b815260206004820152601960248201527f50617373706f7274206d75737420626520696e616374697665000000000000006044820152606401610331565b6001600160a01b03811660008181526001602081815260408084205460038352818520805460ff1990811686179091558186526004845294829020805490951690931790935591518181529092917ffbd0a3f6e9a0dd5f834515748047e83de8064477489a0a0d6b59c64bbecc992a91015b60405180910390a25050565b60085460ff166105de5760405162461bcd60e51b815260206004820152601960248201527f54686520636f6e74726163742069732064697361626c65642e000000000000006044820152606401610331565b6105e6610a5f565b6008805460ff19169055565b60085460ff166106445760405162461bcd60e51b815260206004820152601960248201527f54686520636f6e74726163742069732064697361626c65642e000000000000006044820152606401610331565b61064c610a5f565b6001600160a01b03811660009081526001602052604081205490036106b35760405162461bcd60e51b815260206004820152601360248201527f50617373706f7274206d757374206578697374000000000000000000000000006044820152606401610331565b6001600160a01b03811660009081526003602052604090205460ff1615156001146107205760405162461bcd60e51b815260206004820152601760248201527f50617373706f7274206d757374206265206163746976650000000000000000006044820152606401610331565b6001600160a01b03811660008181526001602090815260408083205460038352818420805460ff1990811690915581855260048452938290208054909416909355518281529192917f13b865880a841dc469b629159fa1e730fee99568b0decc6737fd688b362463819101610580565b60085460ff166107e25760405162461bcd60e51b815260206004820152601960248201527f54686520636f6e74726163742069732064697361626c65642e000000000000006044820152606401610331565b6107ea610a5f565b6001600160a01b038216600090815260016020526040902054156108505760405162461bcd60e51b815260206004820152601760248201527f50617373706f727420616c7265616479206578697374730000000000000000006044820152606401610331565b6000818152600260205260409020546001600160a01b0316156108b55760405162461bcd60e51b815260206004820152601c60248201527f50617373706f727420696420616c72656164792061737369676e6564000000006044820152606401610331565b6103d16006546001610ab9565b6108ca610a5f565b6108d46000610b8d565b565b6108de610a5f565b6008805460ff19166001179055565b60085460ff1661093f5760405162461bcd60e51b815260206004820152601960248201527f54686520636f6e74726163742069732064697361626c65642e000000000000006044820152606401610331565b336000908152600160205260409020541561099c5760405162461bcd60e51b815260206004820152601760248201527f50617373706f727420616c7265616479206578697374730000000000000000006044820152606401610331565b60006109b16009546103bd6007546001610ab9565b90506109c06007546001610ab9565b6007556109cf33826000610ace565b50565b6109da610a5f565b6001600160a01b038116610a565760405162461bcd60e51b815260206004820152602660248201527f4f776e61626c653a206e6577206f776e657220697320746865207a65726f206160448201527f64647265737300000000000000000000000000000000000000000000000000006064820152608401610331565b6109cf81610b8d565b6000546001600160a01b031633146108d45760405162461bcd60e51b815260206004820181905260248201527f4f776e61626c653a2063616c6c6572206973206e6f7420746865206f776e65726044820152606401610331565b6000610ac58284610c64565b90505b92915050565b610adb6005546001610ab9565b6005556000828152600260209081526040808320805473ffffffffffffffffffffffffffffffffffffffff19166001600160a01b038816908117909155808452600180845282852087905560038452828520805460ff19908116831790915587865260048552948390208054909516179093558051858152841515928101929092527fd84ad002b7b684d6a40cbfe4309d8077ed4af3da56f76eb6a3b7192906f1331b910160405180910390a2505050565b600080546001600160a01b0383811673ffffffffffffffffffffffffffffffffffffffff19831681178455604051919092169283917f8be0079c531659141344cd1fd0a4f28419497f9722a3daafe3b4186f6b6457e09190a35050565b600060208284031215610bfc57600080fd5b5035919050565b80356001600160a01b0381168114610c1a57600080fd5b919050565b600060208284031215610c3157600080fd5b610ac582610c03565b60008060408385031215610c4d57600080fd5b610c5683610c03565b946020939093013593505050565b80820180821115610ac8577f4e487b7100000000000000000000000000000000000000000000000000000000600052601160045260246000fdfea26469706673582212204845d6a417333977d54f96340a53e2714b71600b7a4a6d84536a11782e115b7864736f6c63430008110033",
  "linkReferences": {},
  "deployedLinkReferences": {}
}